:020000040800F2
:1000000000000120BD050008AD040008AF04000891
:1000100001060008010600080106000800000000B3
:10002000000000000000000000000000B104000813
:100030000106000800000000B3040008B504000831
:100040000106000801060008010600080106000874
:100050000106000801060008010600080106000864
:100060000106000801060008010600080106000854
:100070000106000801060008010600080106000844
:100080000106000801060008D10400080106000866
:100090000106000801060008010600080106000824
:1000A0000106000801060008010600080106000814
:1000B00001060008010600080D05000801060008F9
:1000C00001060008010600080106000801060008F4
:1000D00001060008010600080106000801060008E4
:1000E000B704000801060008010600080106000820
:1000F00001060008010600080106000801060008C4
:1001000000000000000000000000000001060008E0
:1001100001060008010600080106000801060008A3
:100120000106000801060008010600080106000893
:1001300001060008010600080000000000000000A1
:10014000F504000801060008010600080000000090
:10015000000000000000000000000000000000009F
:100160000000000000000000010600080106000871
:100170000106000800000000000000000000000070
:10018000000000000106000810B5054C237833B9C3
:10019000044B13B10448AFF300800123237010BD5A
:1001A000080600200000000078120008084B10B577
:1001B0001BB108490848AFF300800848036803B939
:1001C00010BD074B002BFBD0BDE81040184700BF07
:1001D000000000000C060020781200080406002031
:1001E0000000000007B58DF805309DF81030009133
:1001F0008DF8063069469DF814308DF804208DF88E
:10020000073000F031FB03B05DF804FBF7B50121C6
:100210004FF4003000F082FD01214FF4802000F007
:100220007DFD01214FF40020002500F077FD032320
:1002300002241A460195009533214FF09040FFF7B4
:10024000D1FF334F01942246009503234FF4D85138
:100250004FF09040FFF7C6FF01222E4E0194114649
:10026000384600950323FFF7BDFF22463846019527
:10027000009503234FF48071FFF7B4FF2246304608
:100280000194009503230F21FFF7ACFF03232246BF
:100290003046019500954FF40051FFF7A3FF082267
:1002A0001146384600F029FB062208214FF0904005
:1002B00000F023FB062209214FF0904000F01DFBC7
:1002C00006220B214FF0904000F017FB06220C2174
:1002D0004FF0904000F011FB22462946304600F0D6
:1002E0000CFB22463046012100F007FB2246214646
:1002F000304600F002FB22463046032100F0FDFAB2
:1003000004220D21304603B0BDE8F04000F0F5BAFC
:10031000000400480008004873B50121084600F0B9
:1003200009FD684600F078FA012615230025082407
:10033000684600938DF806608DF804508DF80540EE
:1003400000F0E8F90D21022000F024FD0D2368469D
:1003500000938DF806608DF804508DF8054000F08C
:10036000D9F902B070BD07B540238DF804300F23D2
:100370008DF805308DF8063001A801238DF807307F
:1003800000F0CEFA03B05DF804FB000070B5012167
:1003900088B04FF4006000F0CDFC6846234C00F0BC
:1003A0005DFD03A800F0F0FD40F2F3130026019379
:1003B0006025022369462046ADF80030ADF80250B2
:1003C000ADF8086000F0FCFC0423ADF812304FF4E7
:1003D00080730395ADF81C3001254FF4007303A919
:1003E0002046ADF81E30ADF810500596ADF81860F7
:1003F000ADF81A6000F054FD2046082100F0CEFD53
:1004000003A9204600F08AFD2046082100F0CCFD1B
:100410002946204600F02BFD2946204600F0CBFD62
:100420002946204600F02FFD08B070BD002C014089
:1004300030B589B002A800F07BFE01214FF40030F6
:10044000002400F06BFC01214FF4003000F07EFC32
:1004500003230194009402220C214FF09040FFF7F7
:10046000C1FE114D072202214FF0904000F045FAE5
:10047000072203214FF0904000F03FFA284600F099
:10048000ADFD4FF41653029302A90C2328460693A0
:10049000039404940594079400F0EEFD012128468E
:1004A00000F051FE09B030BD004400407047FEE747
:1004B00070477047704708B50D2000F0C5F9012856
:1004C00004D10D20BDE8084000F0CCB908BD000003
:1004D00008B504214FF0A04000F015F9012805D11E
:1004E0004FF0A04000F00CF9014B188008BD00BF90
:1004F0002806002008B5152000F0A6F9012804D12F
:100500001520BDE8084000F0ADB908BD012108B5CF
:10051000054800F059FD0128014604D10248BDE814
:10052000084000F057BD08BD00080040044B1B68A0
:1005300058430023834202D000BF0133FAE77047DB
:100540002406002010B5074C0121204600F0D1F907
:1005500042F21070FFF7EAFF20460121BDE810408B
:1005600000F0C9B90004004808B5104B104A1B68D8
:10057000B3FBF2F30F4A1360FFF748FEFFF7CCFE20
:10058000FFF7F1FEFFF702FFFFF752FFFFF7DAFF79
:10059000FFF7D8FF0021084800F0E2FD0028F9D15C
:1005A0004121054800F0D8FDF2E700BF9801002086
:1005B00040420F002406002000440040002103E0D8
:1005C0000A4B5B584350043109480A4B42189A427F
:1005D000F6D3094A02E0002342F8043B074B9A4253
:1005E000F9D300F00FF8FFF7BFFF70477C12000847
:1005F0009801002008060020080600202C06002094
:10060000FEE70000394AD2F8883043F47003C2F89C
:100610008830374B1A6842F001021A605968354A2F
:100620000A405A601A6822F0847222F480321A60FA
:100630001A6822F480221A605A6822F4FE025A6074
:10064000DA6A22F00F02DA62196B2B4A82B00A4092
:100650001A6300229A60009201921A6842F4803272
:100660001A601A6802F400320192009A0132009274
:10067000019A1AB9009AB2F5A04FF2D11A6812F491
:10068000003218BF01220192019A012A05D0174BAE
:100690004FF000629A6002B07047184A1221116050
:1006A0005A685A605A685A605A6842F480625A60BE
:1006B0005A6822F47C125A605A6842F4E8125A606E
:1006C0001A6842F080721A601968094A8901FBD5DC
:1006D000516821F003015160516841F002015160FD
:1006E0005A6802F00C02082AFAD1D0E700ED00E0C7
:1006F000001002400CC07FF8CCFC00FF002002403C
:10070000006C80B2704703680B4214BF01200020C8
:10071000704700008279036870B50479002A64D0BC
:1007200023F01F0101F1804101F5823103F01F0226
:100730000D68012303FA02F225EA02020A60016849
:10074000324D21F01F0601F01F01725903FA01F129
:1007500022EA01017151016804F1804221F01F0574
:1007600002F5823201F01F01AC5803FA01F1214376
:10077000A9500268264D22F01F0402F01F026159A1
:1007800003FA02F221EA020262510268214C22F0CD
:100790001F0602F01F02315903FA02F221EA020297
:1007A000417932511029026812D122F01F0602F05D
:1007B0001F02715903FA02F20A437251026822F0D1
:1007C0001F0002F01F02015993400B43035170BDFB
:1007D00001F1804122F01F0401F5823102F01F0275
:1007E000605893400343635070BD04F1804223F08E
:1007F0001F0502F5823203F01F03A958012000FAF9
:1008000003F321EA0303AB5070BD00BF04040140B1
:10081000080401400C04014000231022036003710E
:10082000427183717047000020F01F02054B00F0F9
:100830001F00D258012303FA00F0104214BF1846DB
:100840000020704714040140FFF7EEBF20F01F02A4
:10085000012300F01F0003FA00F0014BD050704755
:1008600014040140FFF7F2BF2DE9F04300230F68A5
:100870001A464FF0010E03260EFA02F939EA070470
:1008800030D191F804C00CF1FF34012C18D88468E1
:1008900091F8058006FA03F524EA0504846085686A
:1008A00008FA03F848EA050585608488A4B224EABA
:1008B000090484808C79858894402C43A4B2848078
:1008C000056806FA03F4E4432540056005680CFA60
:1008D00003FC4CEA05050560C5682540CC799C40C1
:1008E0002C43C4600132102A03F10203C4D1BDE8D5
:1008F000F083816170470185704701F00703C908E3
:1009000000EB810010B59B00046A0F21994024EA96
:1009100001010162016A9A400A43026210BD0000AF
:10092000C278037810B50AB3164AD1684278C94331
:10093000C1F30221C1F1040402FA04F40F22CA40F7
:1009400081780A40224303F1604303F561431201B9
:10095000D2B283F8002303780122590903F01F0360
:1009600002FA03F3084A42F8213010BD5A09012166
:1009700003F01F0301FA03F32032034941F8223048
:1009800010BD00BF00ED00E000E100E0B64A536892
:1009900003F00C03042B2DE9F04705D0082B06D0FB
:1009A000B2490160BBB917E0B04B036013E0536874
:1009B0005468C3F38343E60303F1020149BFD36ADA
:1009C000AB4BAA4C03F00F0344BF0133B4FBF3F36A
:1009D0004B43036000E000235168DFF898E2DFF842
:1009E0009892C1F303111EF801500168EDB221FA8B
:1009F00005F444605668C6F302261EF8067024FA11
:100A000007F787605668C6F3C2261EF80660F6B27E
:100A1000F440C460D2F82C804FEA181808F00F0C8C
:100A200018F0100F39F81CC01FFA8CFC07D0BCF16D
:100A3000000F04D0B3FBFCFCC0F810C000E0016163
:100A4000D2F82C804FEA582808F00F0C18F0100F3D
:100A500039F81CC008F01F0A1FFA8CFC07D0BCF143
:100A6000000F04D0B3FBFCFCC0F814C000E04161EF
:100A7000D2F830C01CF0100F06BFDFF8F0C1C0F88C
:100A800018C08161D2F830C01CF0200F06BFDFF81B
:100A9000DCC1C0F81CC0C161D2F830C01CF0400FEE
:100AA00006BFDFF8C8C1C0F820C00162D2F830C06C
:100AB0001CF4807F08D08B4206D1B54204D14FEAA6
:100AC000430CC0F824C000E044621EF80AE0D2F8EB
:100AD00030C01CF0807F5FFA8EFE08D08B4206D1BA
:100AE000754504D14FEA430CC0F830C000E00763FD
:100AF000D2F830C01CF0007F08D08B4206D175457B
:100B000004D14FEA430EC0F834E000E04763D2F866
:100B100030E01EF4805F08D08B4206D1B54204D18C
:100B20004FEA430EC0F828E000E08462D2F830E0DB
:100B30001EF4007F08D08B4206D1B54204D14FEAA3
:100B4000430EC0F82CE000E0C462D2F830E01EF49E
:100B5000806F08D08B4206D1B54204D14FEA430ED4
:100B6000C0F84CE000E0C464D2F830E01EF4006F3E
:100B700008D08B4206D1B54204D14FEA430EC0F8EB
:100B800050E000E00465D2F830E01EF4005F08D0C9
:100B90008B4206D1B54204D14FEA430EC0F854E06F
:100BA00000E00465D2F830E01EF4004F06D08B421E
:100BB00004D1B54202D14B00836500E08465156B1A
:100BC000294BAD0701D1846315E01C6B04F00304CD
:100BD000012C01D181630EE01C6B04F00304022C94
:100BE00002D14FF4004305E01B6B03F00303032B1A
:100BF00001D11E4B8363146B1B4B14F4403F01D196
:100C0000C76318E01C6B04F44034B4F5803F01D195
:100C1000C16310E01C6B04F44034B4F5003F02D112
:100C20004FF4004306E01B6B03F44033B3F5403F41
:100C300001D10E4BC363146B0B4B14F4402F01D145
:100C4000076423E01C6B04F44024B4F5802F01D129
:100C500001641BE01C6B04F44024B4F5002F0DD19B
:100C60004FF4004311E000BF0010024000127A0070
:100C700000093D00BC0100209C0100201B6B03F417
:100C80004023B3F5402F01D1224B0364146B224B58
:100C900014F4401F01D1476418E01C6B04F44014A5
:100CA000B4F5801F01D1416410E01C6B04F44014C2
:100CB000B4F5001F02D14FF4004306E01B6B03F4B0
:100CC0004013B3F5401F01D1124B4364126B124B1A
:100CD00012F4400F02D18764BDE8F0871A6B02F46A
:100CE0004002B2F5800F02D18164BDE8F0871A6B33
:100CF00002F44002B2F5000F02D14FF4004306E0C7
:100D00001B6B03F44003B3F5400F01D1014B836427
:100D1000BDE8F08700127A0000100240044B5A69C7
:100D200009B1104301E022EA00005861704700BF9A
:100D300000100240044B9A6909B1104301E022EA15
:100D400000009861704700BF00100240044BDA6950
:100D500009B1104301E022EA0000D861704700BFEA
:100D600000100240044BDA6809B1104301E022EAA6
:100D70000000D860704700BF00100240044B1A69A1
:100D800009B1104301E022EA00001861704700BF7A
:100D90000010024001F0030301F0FC0101F1804169
:100DA00001F5803110B59B008C680F229A4024EA2F
:100DB00002028A608A6898401043886010BD000073
:100DC000244A038890429BB212D002F500629042FE
:100DD0000ED0B0F1804F0BD0A2F59832904207D0E0
:100DE00002F58062904203D002F5A432904203D112
:100DF0004A8823F070031343174A904208D002F543
:100E0000806290421FBF23F440730A899BB2134350
:100E100003804B68C3620B8803850E4B984213D046
:100E200003F5006398420FD003F5406398420BD05E
:100E300003F58063984207D003F58063984203D09E
:100E400003F50063984201D14B8903860123436176
:100E5000704700BF002C0140001000404FF0FF33EE
:100E600043600023038003814380438170470388EC
:100E700019B19BB243F0800303E023F080031B040D
:100E80001B0C03807047038819B19BB243F0010328
:100E900003E023F001031B041B0C038070470000D8
:100EA000036A23F001030362036A426830B5846970
:100EB0000D6824F4803424F073042C438D8923F0CE
:100EC00002032B438D882B43134DA8420FD005F509
:100ED0000065A8420BD005F54065A84207D005F58E
:100EE0008065A84203D005F58065A8420DD1CD8963
:100EF00023F008032B43CD8823F004032B430D8AF2
:100F000022F440722A434D8A2A4342608A688461EF
:100F10004263036230BD00BF002C0140036A23F02E
:100F200010030362036A70B5446882690D688E8994
:100F300022F0807222F4E64242EA052523F02002E4
:100F40008B88334342EA03130E4A904203D002F5E2
:100F50000062904210D1CA890E8A23F0800343EACE
:100F60000213CA8823F0400343EA02134A8A24F496
:100F70004064324344EA82048A6844608561826343
:100F8000036270BD002C0140002303608380C38096
:100F900083608381C381038243827047836923F026
:100FA0000803194381617047836923F4006343EAAE
:100FB000012181617047436C11B143F4004301E0AA
:100FC000C3F30E034364704703690B4214BF01204F
:100FD00000207047C94389B20161704708B5214BB1
:100FE00098420BD101214FF48040FFF7BBFE002156
:100FF0004FF48040BDE80840FFF7B4BE1A4B98425A
:1010000008D101214FF40030FFF7B8FE00214FF462
:10101000003022E0154B984208D101214FF4802086
:10102000FFF7ACFE00214FF4802016E0104B9842F1
:1010300008D101214FF40020FFF7A0FE00214FF45A
:1010400000200AE00B4B98420BD101214FF4801095
:10105000FFF794FE00214FF48010BDE80840FFF731
:101060008DBE08BD003801400044004000480040EB
:10107000004C004000500040036823F0010330B5ED
:101080000360436823F440528B680D46134343606A
:10109000EA684968036811432A6923F4B0530A4394
:1010A00023F00C0313430360836823F440726B69DD
:1010B00099B013438360044601A8FFF767FC184BFF
:1010C0009C4201D10F9B0EE0164B9C4201D1109B1C
:1010D00009E0154B9C4201D1119B04E0134B9C424B
:1010E0000CBF129B139B2268296812F4004F18BF93
:1010F0005B00B3FBF1F201FB1233B3EB510F23683A
:1011000028BF01321B0441BF4FF6F073C2F3420106
:10111000134041EA030292B2A28119B030BD00BF70
:10112000003801400044004000480040004C0040AE
:101130004FF4165303600C22002343608360C360A6
:10114000026143617047036811B143F0010301E09C
:1011500023F0010303607047C1F308010185704764
:10116000C3690B4214BF012000207047024B13B12A
:10117000024800F005B87047000000008D1100081B
:10118000002301461A46184600F014B838B5074D3A
:10119000074C2C1BA41005D0013C55F8043D984782
:1011A000002CF9D1BDE8384000F05CB804060020FE
:1011B000000600202DE9F047254C2568D5F8484168
:1011C0000646884692469946C4B360681F2817DCD5
:1011D000431C76B104EB80050122C5F888A0D4F841
:1011E000881182401143022EC4F88811C5F8089175
:1011F0001ED00230636044F820800020BDE8F087F4
:10120000144B03B34FF4C870AFF300800446D0B161
:10121000D5F84831002780E88800C5F848413846AD
:101220000123C4F88871C4F88C71002EE1D0D1E795
:10123000D4F88C110A43C4F88C21DAE705F5A674BA
:10124000C5F84841C1E74FF0FF30BDE8F08700BF67
:101250007412000800000000F8B500BFF8BC08BC1C
:101260009E467047F8B500BFF8BC08BC9E46704764
:0C12700043000000D0010020000000003E
:10127C0000A24A04010002000400060008000A0053
:10128C000C00100020004000800000010000000055
:10129C00000000000000000001020304010203042E
:1012AC00060708090000000000000000BC04002034
:1012BC00240500208C050020000000000000000028
:1012CC000000000000000000000000000000000012
:1012DC000000000000000000000000007012000878
:1012EC0000000000000000000000000000000000F2
:1012FC0000000000000000000000000000000000E2
:10130C0000000000000000000000000000000000D1
:10131C0000000000000000000000000000000000C1
:10132C0000000000000000000000000000000000B1
:10133C0000000000000000000000000000000000A1
:10134C000000000000000000000000000000000091
:10135C0001000000000000000E33CDAB34126DE62E
:10136C00ECDE05000B000000000000000000000097
:10137C000000000000000000000000000000000061
:10138C000000000000000000000000000000000051
:10139C000000000000000000000000000000000041
:1013AC000000000000000000000000000000000031
:1016DC006D110008AD010008890100080000000030
:04000005080005BD2D
:00000001FF
